{
	"data": {
		"bytecode": {
			"linkReferences": {},
			"object": "608060405234801561001057600080fd5b50610156806100206000396000f3fe608060405234801561001057600080fd5b506004361061002b5760003560e01c80637e6230f314610030575b600080fd5b610038610051565b604051610048949392919061009f565b60405180910390f35b60008060008060003390506000429050600043905060005a90508383838397509750975097505050505090919293565b61008a816100e4565b82525050565b61009981610116565b82525050565b60006080820190506100b46000830187610081565b6100c16020830186610090565b6100ce6040830185610090565b6100db6060830184610090565b95945050505050565b60006100ef826100f6565b9050919050565b600073ffffffffffffffffffffffffffffffffffffffff82169050919050565b600081905091905056fea2646970667358221220bd844adda29085a98431f10e93c2b7d1d59840f734293b214b86b2305736702064736f6c63430008060033",
			"opcodes": "PUSH1 0x80 PUSH1 0x40 MSTORE CALLVALUE DUP1 ISZERO PUSH2 0x10 JUMPI PUSH1 0x0 DUP1 REVERT JUMPDEST POP PUSH2 0x156 DUP1 PUSH2 0x20 PUSH1 0x0 CODECOPY PUSH1 0x0 RETURN INVALID PUSH1 0x80 PUSH1 0x40 MSTORE CALLVALUE DUP1 ISZERO PUSH2 0x10 JUMPI PUSH1 0x0 DUP1 REVERT JUMPDEST POP PUSH1 0x4 CALLDATASIZE LT PUSH2 0x2B JUMPI PUSH1 0x0 CALLDATALOAD PUSH1 0xE0 SHR DUP1 PUSH4 0x7E6230F3 EQ PUSH2 0x30 JUMPI JUMPDEST PUSH1 0x0 DUP1 REVERT JUMPDEST PUSH2 0x38 PUSH2 0x51 JUMP JUMPDEST PUSH1 0x40 MLOAD PUSH2 0x48 SWAP5 SWAP4 SWAP3 SWAP2 SWAP1 PUSH2 0x9F JUMP JUMPDEST PUSH1 0x40 MLOAD DUP1 SWAP2 SUB SWAP1 RETURN JUMPDEST PUSH1 0x0 DUP1 PUSH1 0x0 DUP1 PUSH1 0x0 CALLER SWAP1 POP PUSH1 0x0 TIMESTAMP SWAP1 POP PUSH1 0x0 NUMBER SWAP1 POP PUSH1 0x0 GAS SWAP1 POP DUP4 DUP4 DUP4 DUP4 SWAP8 POP SWAP8 POP SWAP8 POP SWAP8 POP POP POP POP POP SWAP1 SWAP2 SWAP3 SWAP4 JUMP JUMPDEST PUSH2 0x8A DUP2 PUSH2 0xE4 JUMP JUMPDEST DUP3 MSTORE POP POP JUMP JUMPDEST PUSH2 0x99 DUP2 PUSH2 0x116 JUMP JUMPDEST DUP3 MSTORE POP POP JUMP JUMPDEST PUSH1 0x0 PUSH1 0x80 DUP3 ADD SWAP1 POP PUSH2 0xB4 PUSH1 0x0 DUP4 ADD DUP8 PUSH2 0x81 JUMP JUMPDEST PUSH2 0xC1 PUSH1 0x20 DUP4 ADD DUP7 PUSH2 0x90 JUMP JUMPDEST PUSH2 0xCE PUSH1 0x40 DUP4 ADD DUP6 PUSH2 0x90 JUMP JUMPDEST PUSH2 0xDB PUSH1 0x60 DUP4 ADD DUP5 PUSH2 0x90 JUMP JUMPDEST SWAP6 SWAP5 POP POP POP POP POP JUMP JUMPDEST PUSH1 0x0 PUSH2 0xEF DUP3 PUSH2 0xF6 JUMP JUMPDEST SWAP1 POP SWAP2 SWAP1 POP JUMP JUMPDEST PUSH1 0x0 PUSH20 0xFFFFFFFFFFFFFFFFFFFFFFFFFFFFFFFFFFFFFFFF DUP3 AND SWAP1 POP SWAP2 SWAP1 POP JUMP JUMPDEST PUSH1 0x0 DUP2 SWAP1 POP SWAP2 SWAP1 POP JUMP INVALID LOG2 PUSH5 0x6970667358 0x22 SLT KECCAK256 0xBD DUP5 0x4A 0xDD LOG2 SWAP1 DUP6 0xA9 DUP5 BALANCE CALL 0xE SWAP4 0xC2 0xB7 0xD1 0xD5 SWAP9 BLOCKHASH 0xF7 CALLVALUE 0x29 EXTCODESIZE 0x21 0x4B DUP7 0xB2 ADDRESS JUMPI CALLDATASIZE PUSH17 0x2064736F6C634300080600330000000000 "
		},
		"gasEstimates": {
			"creation": {
				"codeDepositCost": "68400",
				"executionCost": "117",
				"totalCost": "68517"
			},
			"external": {
				"globalVars()": "infinite"
			}
		},
		"methodIdentifiers": {
			"globalVars()": "7e6230f3"
		}
	},
	"abi": [
		{
			"inputs": [],
			"name": "globalVars",
			"outputs": [
				{
					"internalType": "address",
					"name": "",
					"type": "address"
				},
				{
					"internalType": "uint256",
					"name": "",
					"type": "uint256"
				},
				{
					"internalType": "uint256",
					"name": "",
					"type": "uint256"
				},
				{
					"internalType": "uint256",
					"name": "",
					"type": "uint256"
				}
			],
			"stateMutability": "view",
			"type": "function"
		}
	]
}