{
	"data": {
		"bytecode": {
			"linkReferences": {},
			"object": "6080604052426000556363b0cd006001556363bf4d806002556018603c8060015460025461002d9190610174565b6100379190610143565b6100419190610143565b61004b9190610143565b600355603c806001546002546100619190610174565b61006b9190610143565b6100759190610143565b60045562278d00426100879190610174565b6005556201518060005461009b91906100ed565b6006556203f4806000546100af9190610174565b60075562093a806000546100c39190610174565b6008556301da9c006000546100d891906100ed565b6009553480156100e757600080fd5b50610210565b60006100f8826101a8565b9150610103836101a8565b9250827fffffffffffffffffffffffffffffffffffffffffffffffffffffffffffffffff03821115610138576101376101b2565b5b828201905092915050565b600061014e826101a8565b9150610159836101a8565b925082610169576101686101e1565b5b828204905092915050565b600061017f826101a8565b915061018a836101a8565b92508282101561019d5761019c6101b2565b5b828203905092915050565b6000819050919050565b7f4e487b7100000000000000000000000000000000000000000000000000000000600052601160045260246000fd5b7f4e487b7100000000000000000000000000000000000000000000000000000000600052601260045260246000fd5b6102178061021f6000396000f3fe608060405234801561001057600080fd5b50600436106100885760003560e01c8063b495b7391161005b578063b495b73914610105578063c7cc4ee914610123578063d79df62914610141578063d95660be1461015f57610088565b8063146bea7b1461008d5780634b3ba42c146100ab57806370da4f24146100c9578063824b68e9146100e7575b600080fd5b61009561017d565b6040516100a291906101bc565b60405180910390f35b6100b3610183565b6040516100c091906101bc565b60405180910390f35b6100d1610189565b6040516100de91906101bc565b60405180910390f35b6100ef61018f565b6040516100fc91906101bc565b60405180910390f35b61010d610195565b60405161011a91906101bc565b60405180910390f35b61012b61019b565b60405161013891906101bc565b60405180910390f35b6101496101a1565b60405161015691906101bc565b60405180910390f35b6101676101a7565b60405161017491906101bc565b60405180910390f35b60095481565b60085481565b60045481565b60055481565b60035481565b60065481565b60075481565b60005481565b6101b6816101d7565b82525050565b60006020820190506101d160008301846101ad565b92915050565b600081905091905056fea264697066735822122086d86879378d2e27c77933cc5af5bec46e362cd7a18a7e328c4c240d37cb357864736f6c63430008060033",
			"opcodes": "PUSH1 0x80 PUSH1 0x40 MSTORE TIMESTAMP PUSH1 0x0 SSTORE PUSH4 0x63B0CD00 PUSH1 0x1 SSTORE PUSH4 0x63BF4D80 PUSH1 0x2 SSTORE PUSH1 0x18 PUSH1 0x3C DUP1 PUSH1 0x1 SLOAD PUSH1 0x2 SLOAD PUSH2 0x2D SWAP2 SWAP1 PUSH2 0x174 JUMP JUMPDEST PUSH2 0x37 SWAP2 SWAP1 PUSH2 0x143 JUMP JUMPDEST PUSH2 0x41 SWAP2 SWAP1 PUSH2 0x143 JUMP JUMPDEST PUSH2 0x4B SWAP2 SWAP1 PUSH2 0x143 JUMP JUMPDEST PUSH1 0x3 SSTORE PUSH1 0x3C DUP1 PUSH1 0x1 SLOAD PUSH1 0x2 SLOAD PUSH2 0x61 SWAP2 SWAP1 PUSH2 0x174 JUMP JUMPDEST PUSH2 0x6B SWAP2 SWAP1 PUSH2 0x143 JUMP JUMPDEST PUSH2 0x75 SWAP2 SWAP1 PUSH2 0x143 JUMP JUMPDEST PUSH1 0x4 SSTORE PUSH3 0x278D00 TIMESTAMP PUSH2 0x87 SWAP2 SWAP1 PUSH2 0x174 JUMP JUMPDEST PUSH1 0x5 SSTORE PUSH3 0x15180 PUSH1 0x0 SLOAD PUSH2 0x9B SWAP2 SWAP1 PUSH2 0xED JUMP JUMPDEST PUSH1 0x6 SSTORE PUSH3 0x3F480 PUSH1 0x0 SLOAD PUSH2 0xAF SWAP2 SWAP1 PUSH2 0x174 JUMP JUMPDEST PUSH1 0x7 SSTORE PUSH3 0x93A80 PUSH1 0x0 SLOAD PUSH2 0xC3 SWAP2 SWAP1 PUSH2 0x174 JUMP JUMPDEST PUSH1 0x8 SSTORE PUSH4 0x1DA9C00 PUSH1 0x0 SLOAD PUSH2 0xD8 SWAP2 SWAP1 PUSH2 0xED JUMP JUMPDEST PUSH1 0x9 SSTORE CALLVALUE DUP1 ISZERO PUSH2 0xE7 JUMPI PUSH1 0x0 DUP1 REVERT JUMPDEST POP PUSH2 0x210 JUMP JUMPDEST PUSH1 0x0 PUSH2 0xF8 DUP3 PUSH2 0x1A8 JUMP JUMPDEST SWAP2 POP PUSH2 0x103 DUP4 PUSH2 0x1A8 JUMP JUMPDEST SWAP3 POP DUP3 PUSH32 0xFFFFFFFFFFFFFFFFFFFFFFFFFFFFFFFFFFFFFFFFFFFFFFFFFFFFFFFFFFFFFFFF SUB DUP3 GT ISZERO PUSH2 0x138 JUMPI PUSH2 0x137 PUSH2 0x1B2 JUMP JUMPDEST JUMPDEST DUP3 DUP3 ADD SWAP1 POP SWAP3 SWAP2 POP POP JUMP JUMPDEST PUSH1 0x0 PUSH2 0x14E DUP3 PUSH2 0x1A8 JUMP JUMPDEST SWAP2 POP PUSH2 0x159 DUP4 PUSH2 0x1A8 JUMP JUMPDEST SWAP3 POP DUP3 PUSH2 0x169 JUMPI PUSH2 0x168 PUSH2 0x1E1 JUMP JUMPDEST JUMPDEST DUP3 DUP3 DIV SWAP1 POP SWAP3 SWAP2 POP POP JUMP JUMPDEST PUSH1 0x0 PUSH2 0x17F DUP3 PUSH2 0x1A8 JUMP JUMPDEST SWAP2 POP PUSH2 0x18A DUP4 PUSH2 0x1A8 JUMP JUMPDEST SWAP3 POP DUP3 DUP3 LT ISZERO PUSH2 0x19D JUMPI PUSH2 0x19C PUSH2 0x1B2 JUMP JUMPDEST JUMPDEST DUP3 DUP3 SUB SWAP1 POP SWAP3 SWAP2 POP POP JUMP JUMPDEST PUSH1 0x0 DUP2 SWAP1 POP SWAP2 SWAP1 POP JUMP JUMPDEST PUSH32 0x4E487B7100000000000000000000000000000000000000000000000000000000 PUSH1 0x0 MSTORE PUSH1 0x11 PUSH1 0x4 MSTORE PUSH1 0x24 PUSH1 0x0 REVERT JUMPDEST PUSH32 0x4E487B7100000000000000000000000000000000000000000000000000000000 PUSH1 0x0 MSTORE PUSH1 0x12 PUSH1 0x4 MSTORE PUSH1 0x24 PUSH1 0x0 REVERT JUMPDEST PUSH2 0x217 DUP1 PUSH2 0x21F PUSH1 0x0 CODECOPY PUSH1 0x0 RETURN INVALID PUSH1 0x80 PUSH1 0x40 MSTORE CALLVALUE DUP1 ISZERO PUSH2 0x10 JUMPI PUSH1 0x0 DUP1 REVERT JUMPDEST POP PUSH1 0x4 CALLDATASIZE LT PUSH2 0x88 JUMPI PUSH1 0x0 CALLDATALOAD PUSH1 0xE0 SHR DUP1 PUSH4 0xB495B739 GT PUSH2 0x5B JUMPI DUP1 PUSH4 0xB495B739 EQ PUSH2 0x105 JUMPI DUP1 PUSH4 0xC7CC4EE9 EQ PUSH2 0x123 JUMPI DUP1 PUSH4 0xD79DF629 EQ PUSH2 0x141 JUMPI DUP1 PUSH4 0xD95660BE EQ PUSH2 0x15F JUMPI PUSH2 0x88 JUMP JUMPDEST DUP1 PUSH4 0x146BEA7B EQ PUSH2 0x8D JUMPI DUP1 PUSH4 0x4B3BA42C EQ PUSH2 0xAB JUMPI DUP1 PUSH4 0x70DA4F24 EQ PUSH2 0xC9 JUMPI DUP1 PUSH4 0x824B68E9 EQ PUSH2 0xE7 JUMPI JUMPDEST PUSH1 0x0 DUP1 REVERT JUMPDEST PUSH2 0x95 PUSH2 0x17D JUMP JUMPDEST PUSH1 0x40 MLOAD PUSH2 0xA2 SWAP2 SWAP1 PUSH2 0x1BC JUMP JUMPDEST PUSH1 0x40 MLOAD DUP1 SWAP2 SUB SWAP1 RETURN JUMPDEST PUSH2 0xB3 PUSH2 0x183 JUMP JUMPDEST PUSH1 0x40 MLOAD PUSH2 0xC0 SWAP2 SWAP1 PUSH2 0x1BC JUMP JUMPDEST PUSH1 0x40 MLOAD DUP1 SWAP2 SUB SWAP1 RETURN JUMPDEST PUSH2 0xD1 PUSH2 0x189 JUMP JUMPDEST PUSH1 0x40 MLOAD PUSH2 0xDE SWAP2 SWAP1 PUSH2 0x1BC JUMP JUMPDEST PUSH1 0x40 MLOAD DUP1 SWAP2 SUB SWAP1 RETURN JUMPDEST PUSH2 0xEF PUSH2 0x18F JUMP JUMPDEST PUSH1 0x40 MLOAD PUSH2 0xFC SWAP2 SWAP1 PUSH2 0x1BC JUMP JUMPDEST PUSH1 0x40 MLOAD DUP1 SWAP2 SUB SWAP1 RETURN JUMPDEST PUSH2 0x10D PUSH2 0x195 JUMP JUMPDEST PUSH1 0x40 MLOAD PUSH2 0x11A SWAP2 SWAP1 PUSH2 0x1BC JUMP JUMPDEST PUSH1 0x40 MLOAD DUP1 SWAP2 SUB SWAP1 RETURN JUMPDEST PUSH2 0x12B PUSH2 0x19B JUMP JUMPDEST PUSH1 0x40 MLOAD PUSH2 0x138 SWAP2 SWAP1 PUSH2 0x1BC JUMP JUMPDEST PUSH1 0x40 MLOAD DUP1 SWAP2 SUB SWAP1 RETURN JUMPDEST PUSH2 0x149 PUSH2 0x1A1 JUMP JUMPDEST PUSH1 0x40 MLOAD PUSH2 0x156 SWAP2 SWAP1 PUSH2 0x1BC JUMP JUMPDEST PUSH1 0x40 MLOAD DUP1 SWAP2 SUB SWAP1 RETURN JUMPDEST PUSH2 0x167 PUSH2 0x1A7 JUMP JUMPDEST PUSH1 0x40 MLOAD PUSH2 0x174 SWAP2 SWAP1 PUSH2 0x1BC JUMP JUMPDEST PUSH1 0x40 MLOAD DUP1 SWAP2 SUB SWAP1 RETURN JUMPDEST PUSH1 0x9 SLOAD DUP2 JUMP JUMPDEST PUSH1 0x8 SLOAD DUP2 JUMP JUMPDEST PUSH1 0x4 SLOAD DUP2 JUMP JUMPDEST PUSH1 0x5 SLOAD DUP2 JUMP JUMPDEST PUSH1 0x3 SLOAD DUP2 JUMP JUMPDEST PUSH1 0x6 SLOAD DUP2 JUMP JUMPDEST PUSH1 0x7 SLOAD DUP2 JUMP JUMPDEST PUSH1 0x0 SLOAD DUP2 JUMP JUMPDEST PUSH2 0x1B6 DUP2 PUSH2 0x1D7 JUMP JUMPDEST DUP3 MSTORE POP POP JUMP JUMPDEST PUSH1 0x0 PUSH1 0x20 DUP3 ADD SWAP1 POP PUSH2 0x1D1 PUSH1 0x0 DUP4 ADD DUP5 PUSH2 0x1AD JUMP JUMPDEST SWAP3 SWAP2 POP POP JUMP JUMPDEST PUSH1 0x0 DUP2 SWAP1 POP SWAP2 SWAP1 POP JUMP INVALID LOG2 PUSH5 0x6970667358 0x22 SLT KECCAK256 DUP7 0xD8 PUSH9 0x79378D2E27C77933CC GAS CREATE2 0xBE 0xC4 PUSH15 0x362CD7A18A7E328C4C240D37CB3578 PUSH5 0x736F6C6343 STOP ADDMOD MOD STOP CALLER "
		},
		"gasEstimates": {
			"creation": {
				"codeDepositCost": "107000",
				"executionCost": "infinite",
				"totalCost": "infinite"
			},
			"external": {
				"before()": "2473",
				"dayDiff()": "2429",
				"hourDiff()": "2474",
				"later()": "2451",
				"nextYear()": "2430",
				"prevWeek()": "2452",
				"reduced30()": "2496",
				"timeNow()": "2495"
			}
		},
		"methodIdentifiers": {
			"before()": "d79df629",
			"dayDiff()": "b495b739",
			"hourDiff()": "70da4f24",
			"later()": "c7cc4ee9",
			"nextYear()": "146bea7b",
			"prevWeek()": "4b3ba42c",
			"reduced30()": "824b68e9",
			"timeNow()": "d95660be"
		}
	},
	"abi": [
		{
			"inputs": [],
			"name": "before",
			"outputs": [
				{
					"internalType": "uint256",
					"name": "",
					"type": "uint256"
				}
			],
			"stateMutability": "view",
			"type": "function"
		},
		{
			"inputs": [],
			"name": "dayDiff",
			"outputs": [
				{
					"internalType": "uint256",
					"name": "",
					"type": "uint256"
				}
			],
			"stateMutability": "view",
			"type": "function"
		},
		{
			"inputs": [],
			"name": "hourDiff",
			"outputs": [
				{
					"internalType": "uint256",
					"name": "",
					"type": "uint256"
				}
			],
			"stateMutability": "view",
			"type": "function"
		},
		{
			"inputs": [],
			"name": "later",
			"outputs": [
				{
					"internalType": "uint256",
					"name": "",
					"type": "uint256"
				}
			],
			"stateMutability": "view",
			"type": "function"
		},
		{
			"inputs": [],
			"name": "nextYear",
			"outputs": [
				{
					"internalType": "uint256",
					"name": "",
					"type": "uint256"
				}
			],
			"stateMutability": "view",
			"type": "function"
		},
		{
			"inputs": [],
			"name": "prevWeek",
			"outputs": [
				{
					"internalType": "uint256",
					"name": "",
					"type": "uint256"
				}
			],
			"stateMutability": "view",
			"type": "function"
		},
		{
			"inputs": [],
			"name": "reduced30",
			"outputs": [
				{
					"internalType": "uint256",
					"name": "",
					"type": "uint256"
				}
			],
			"stateMutability": "view",
			"type": "function"
		},
		{
			"inputs": [],
			"name": "timeNow",
			"outputs": [
				{
					"internalType": "uint256",
					"name": "",
					"type": "uint256"
				}
			],
			"stateMutability": "view",
			"type": "function"
		}
	]
}